:020000040800F2
:1000000020040020050100086D03000865030008B6
:10001000690300084D010008950900080000000070
:100020000000000000000000000000002D06000895
:10003000510100080000000085030008A507000822
:100040001F0100081F0100081F0100081F01000810
:100050001F0100081F010008550100081F010008CA
:100060001F0100081F0100081F0100081F010008F0
:100070001F0100081F0100081F0100081F010008E0
:100080001F0100081F0100081F0100081F010008D0
:100090001F0100081F0100081F0100081F010008C0
:1000A0001F0100081F0100081F0100081F010008B0
:1000B0001F0100081F010008000000001F010008C8
:1000C0001F01000800000000000000001F010008E0
:1000D00000000000350800081F01000800000000B3
:1000E0001F0100081F0100081F010008DFF810D0E1
:1000F00000F01AF800480047B50A0008AFF3008086
:10010000200400200648804706480047FEE7FEE737
:10011000FEE7FEE7FEE7FEE7FEE7FEE7FEE7FEE7B7
:10012000D5070008ED000008064C074D06E0E06822
:1001300040F0010394E8070098471034AC42F6D32E
:10014000FFF7D8FFF40B0008140C000800BFFEE70F
:100150007047000010B5012000F01CF828B1012004
:1001600000F012F801A000F017FC10BD57616B659C
:10017000757020427574746F6E20697320507265BB
:1001800073730D0A00000000014908607047000009
:1001900014040140014600200022074B1B6803EABB
:1001A0000102054B14331B680B4013B10AB1012047
:1001B00000E0002070470000000401402DE9F041FC
:1001C000024600250026002000230024002791F885
:1001D00003C00CF00F0591F803C00CF0100CBCF13B
:1001E000000F03D091F802C04CEA050591F800C059
:1001F000BCF1000F31D0146800202BE04FF0010C4F
:100200000CFA00F3B1F800C00CEA03069E4220D1BC
:1002100083004FF00F0C0CFA03F7BC4305FA03FC04
:100220004CEA040491F803C0BCF1280F06D14FF04A
:10023000010C0CFA00FCC2F814C00AE091F803C0EB
:10024000BCF1480F05D14FF0010C0CFA00FCC2F8CC
:1002500010C0401C0828D1D31460B1F800C0BCF114
:10026000FF0F34DD546800202EE000F1080C4FF041
:10027000010808FA0CF3B1F800C00CEA03069E422C
:1002800021D183004FF00F0C0CFA03F7BC4305FAA1
:1002900003FC4CEA040491F803C0BCF1280F05D11B
:1002A00000F1080C08FA0CF8C2F8148091F803C0A9
:1002B000BCF1480F07D100F1080C4FF0010808FA13
:1002C0000CF8C2F81080401C0828CED35460BDE85A
:1002D000F0810000F0B50A4600230024002100252B
:1002E00000F00046B6F1004F02D11D4EF16901E069
:1002F0001B4E7168C0F3034583B200F44016B6F597
:10030000401F08D121F07061154E766826F07066A6
:10031000134F7E6012E000F48016B6F5801F06D100
:10032000032606FA05F4A14341F0706106E0460D8C
:10033000360103FA06F6B14341F0706122B1460D71
:10034000360103FA06F6314300F00046B6F1004FDD
:1003500002D1034EF16101E0014E7160F0BD000079
:100360000000014000BFFEE700BFFEE7704700004D
:1003700002490143024A1160704700000000FA057B
:100380000CED00E07047000029B1064A9269024373
:10039000044B9A6104E0034A92698243014B9A61DB
:1003A000704700000010024010B500F027F84FF42D
:1003B000803000F0DDF800BF312000F0AFF80028F9
:1003C000FAD0002000F0C8F8002000F003F94FF444
:1003D000806000F0F3F84FF4E0114FF4803000F04B
:1003E0000BF9012000F002F900BF392000F096F867
:1003F0000028FAD0022000F00DF910BD0F48006867
:1004000040F001000D490860084640680C4908406A
:100410000A494860084600680A49084007490860D8
:100420000846006820F4802008600846406820F4F0
:10043000FE0048604FF41F008860704700100240C3
:100440000000FFF8FFFFF6FE30B500210022002477
:1004500000232D4D6D6805F00C0121B1042905D054
:10046000082923D105E0294D056022E0274D0560CC
:100470001FE0254D6D6805F47012234D6D6805F47D
:100480008034022505EB92421CB9214D554305608D
:100490000BE01D4D6D6805F400351DB11C4D554335
:1004A000056002E0194D5543056002E0174D0560F7
:1004B00000BF00BF144D6D6805F0F0010909154D2E
:1004C0006B5C0568DD4045600F4D6D6805F4E061CB
:1004D000090A104D6B5C4568DD4085600A4D6D680A
:1004E00005F46051C90A0B4D6B5C4568DD40C56081
:1004F000054D6D6805F44041890B074D6B5CC5687F
:10050000B5FBF3F5056130BD0010024000127A0022
:1005100000093D00000000201000002010B5014639
:100520000022002300204A11012A02D1094C23682D
:1005300006E0022A02D1074C236A01E0054C636AF7
:1005400001F01F02012494401C400CB1012000E086
:10055000002010BD0010024001460020034A5068F0
:1005600020F0F00008435060704700000010024087
:100570001149096821F480310F4A11601146096858
:1005800021F480211160B0F5803F03D0B0F5802FB9
:100590000ED106E00849096841F48031064A11602D
:1005A00007E00549096841F4A021034A116000E011
:1005B00000BF00BF7047000000100240014600204D
:1005C000034A506820F4E060084350607047000020
:1005D0000010024001460020034A506820F4605099
:1005E00040EAC100506070470010024001490866AF
:1005F000704700000000424202460020044B586849
:1006000020F47C1042EA01031843014B5860704704
:100610000010024001460020034A506820F0030009
:10062000084350607047000000100240704710B54A
:1006300000F002F810BD00000CB500200190009001
:100640003348006840F480303149086000BF3048CA
:10065000006800F4003000900198401C0190009860
:1006600018B90198B0F5A06FF1D12948006800F4DD
:10067000003010B10120009001E0002000900098AF
:10068000012843D12348006840F010002149086048
:100690000846006820F0030008600846006840F043
:1006A000020008601A4840681949486008464068D6
:1006B00048600846406840F48060486008464068EA
:1006C00020F47C1048600846406840F4E810486018
:1006D0000846006840F08070086000BF0C48006861
:1006E00000F000700028F9D00948406820F00300AD
:1006F000074948600846406840F00200486000BF73
:100700000348406800F00C000828F9D10CBD000037
:100710000010024000200240042808D14FF0E021E0
:10072000096941F004014FF0E022116107E04FF048
:10073000E021096921F004014FF0E02211617047C6
:10074000012808D14FF0E021096941F001014FF083
:10075000E02211610EE0811C41B94FF0E0210969EE
:1007600021F001014FF0E022116103E000214FF080
:10077000E0229161704710B501460022002300205D
:10078000CB10022B03D14FF0E024226902E04FF09E
:10079000E024E26901248C4014400CB1012000E007
:1007A000002010BD704740B14FF0E021096941F0D1
:1007B00002014FF0E022116107E04FF0E0210969EA
:1007C00021F002014FF0E022116170474FF0E0216B
:1007D0004861704710B51348006840F001001149A6
:1007E000086008464068104908400E4948600846BD
:1007F00000680E4908400B4908600846006820F46C
:10080000802008600846406820F4FE0048604FF4ED
:100810001F008860FFF70BFF4FF00060044908607D
:1008200010BD0000001002400000FFF8FFFFF6FEC0
:1008300008ED00E0704721B1828942F400528281C4
:1008400004E082894DF6FF731A40828170470246A8
:100850000020B1F5007F00D100BF13880B400BB121
:10086000012000E000207047F0B503460024002678
:100870000025002040F66A17B94200D100BF184693
:10088000C1F3421401F01F06012707FA06F5012CF7
:1008900001D10C3004E0022C01D1103000E0143002
:1008A0001AB107682F43076002E00768AF4307608B
:1008B000F0BD00002DE9F04786B005460E46002445
:1008C000A24600BFA1460027B08900B100BF2F4655
:1008D0002C8A4CF6FF700440F08804432C82AC89CB
:1008E0004EF6F3100440B0883189084371890843FB
:1008F0000443AC81AC8A4FF6FF400440B089044306
:10090000AC8201A8FFF7A0FD1F48874202D1DDF8A5
:1009100010A001E0DDF80CA0A88900F4004040B16F
:100920000AEBCA0000EB0A1031684900B0FBF1F88D
:1009300007E00AEBCA0000EB0A1031688900B0FB3F
:10094000F1F86420B8FBF0F004012009642101FBF8
:100950001089A88900F4004040B1322000EBC900A2
:10096000B0FBF1F000F00700044308E0322000EB98
:1009700009106421B0FBF1F000F00F0004432C815A
:1009800006B0BDE8F087000000380140C1F308025E
:100990008280704700BFFEE7014A024900F013B8A9
:1009A000810A00081C00002002E008C8121F08C1CC
:1009B000002AFAD170477047002001E001C1121FE0
:1009C000002AFBD170472DE9F04116460F46044638
:1009D000002503E03946B047641C6D1C20780028D0
:1009E000F8D12846BDE8F08100B585B06846FFF72C
:1009F0002BFD6FF00400FFF78FFE0020FFF7D3FE02
:100A000007490198B0FBF1F0064908704FF4FA511C
:100A10000198B0FBF1F00449088005B000BD00006A
:100A200000127A00140000201600002070B5044661
:100A30001148008800FB04F5B5F1807F01D36FF009
:100A40007F452846FFF7C2FE0020FFF779FE012010
:100A5000FFF776FE00BF1020FFF78DFE07490870F4
:100A6000084600780128F6D1C01EFFF769FE002075
:100A7000FFF766FE70BD0000160000201800002081
:100A800070B504460D4600BF80210948FFF7DFFE20
:100A90000028F9D0E1B20648FFF778FF00BF4021F7
:100AA0000348FFF7D4FE0028F9D0204670BD0000AF
:100AB0000038014008B5FFF777FC01210820FFF757
:100AC00063FC1020ADF8000048208DF80300694653
:100AD0000E48FFF773FBFFF787FF4FF4165000F047
:100AE00041F84FF4A060FFF743FC09A000F022F8A2
:100AF000C820FFF79BFF09A000F01CF8C820FFF7F3
:100B000095FF09A000F016F8012008BD000C014077
:100B10002431413030323033302100002431413033
:100B2000303230353021000024314130303230371E
:100B30003021000010B504460EE00120FFF776FFDB
:100B400000BF40210648FFF782FE0028F9D0217837
:100B50000348FFF71BFF641C20780028EDD110BD6F
:100B60000038014010B586B00446012144F2090066
:100B7000FFF70AFC4020ADF8140018208DF817008C
:100B800003208DF8160005A91848FFF717FB8020F1
:100B9000ADF8140004208DF8170003208DF816001E
:100BA00005A91248FFF70AFB01210420FFF792FB79
:100BB00001940020ADF80800ADF80A00ADF80C0073
:100BC000ADF810000C20ADF80E0001A90848FFF7A1
:100BD00071FE012240F225510548FFF745FE012133
:100BE0000348FFF728FE06B010BD0000000C0140CE
:100BF00000380140140C0008000000202000000014
:100C0000A8090008340C000820000020000400009F
:100C1000B8090008000000000102030401020304F7
:100C20000607080902040608000000000000000092
:040C300000000000C0
:04000005080000ED02
:00000001FF
